:100000000C9464000C946D090C9477020C9481009C
:100010000C9481000C9481000C9410080C948100C5
:100020000C9481000C94A7070C9481000C94FC01A3
:100030000C9481000C9481000C9481000C9481003C
:100040000C9481000C9481000C9481000C9481002C
:100050000C948100040309043403730075007000DC
:1000600072006100740069006D006F006600660038
:100070006900630069006F00400067006D00610067
:1000800069006C002E0063006F006D0018034700CC
:1000900053004D00200043006F006E00740072009A
:1000A0006F006C0012011001FF000008C016DC0593
:1000B000000101020001090212000101008064092F
:1000C000040000000000000011241FBECFE5D4E0B2
:1000D000DEBFCDBF12E0A0E6B0E0E4E2F7E102C08F
:1000E00005900D92A437B107D9F713E0A4E7B2E069
:1000F00001C01D92A834B107E1F70E94D5040C9409
:10010000900B0C940000C0988BBBC29A80EF90E0DB
:100110000197F1F7C2980895C09A8BBBC29A80EFFD
:1001200090E00197F1F7C2980895A89588E10FB67D
:10013000F89481BD11BC0FBE8FEF8ABB1BBA8FE054
:1001400087BB18BAC19888EE93E02CE231E0F90140
:100150003197F1F70197D9F788E30E94830086E091
:100160000E9483008EE00E94830081E00E94830051
:1001700088E893E12CE231E0F9013197F1F701973A
:10018000D9F780E20E948C0080E80E94830080E121
:1001900097E22CE231E0F9013197F1F70197D9F7B5
:1001A0002FE088E190E00FB6F894A89581BD0FBECE
:1001B00021BD0895DF92EF92FF920F931F93CF938B
:1001C000DF937C01D62EFC018089803110F491E010
:1001D00001C092E0FDE0DF1609F472C02AE0D216F9
:1001E000B9F481E1989FD00111245197AE0DBF1D44
:1001F00090E208C0FD01E80FF11D90838F5F5096DB
:100200008C93509750968C915097803198F358C0AA
:10021000913021F0923009F053C00FC0882319F4B7
:1002200080E80E948300F7018089E80FF11DD082E9
:100230008D2D0E948C00F70140C087010F5E1F4F7B
:10024000F8018089882319F480EC0E948300F8016A
:100250008089803148F180E80E94830088E00E9414
:100260008300C0E0D0E0F801EC0FFD1F8081F701B2
:10027000EC0FFD1F80830E948C002196C031D105B8
:1002800091F780EC0E948300FF2480E20E948C00A2
:10029000F394F0E1FF16C9F7F801108A8EE00E948E
:1002A000830080EC0E948300F8018089E80FF11D33
:1002B000D0828D2D0E948C00F80180898F5F808B09
:1002C000DF91CF911F910F91FF90EF90DF900895F4
:1002D000EF92FF921F93CF93DF937C01EB0110E02D
:1002E00004C0C7010E94DA001F5FFE01E10FF11D8B
:1002F00060816623B1F7DF91CF911F91FF90EF905E
:1003000008950F931F938C0181E00E948300F801F0
:10031000108A11A2A89588EE93E02CE231E0F90151
:100320003197F1F70197D9F7A8951F910F9108958B
:1003300062E070E00E949A0ACB0120E737E104C036
:10034000A895F9013197F1F701974FEF8F3F940787
:10035000B9F7089513BE12BE88B7816088BF89B708
:10036000816089BF1092750208959C01369527958A
:1003700094E0220F331F9A95E1F740E050E060E0EF
:100380007BE187EB90E00E94AD0A2150304082E68D
:100390008BB988E98AB986E880BD80B58F7780BD42
:1003A000832F992787FD9A9580BD29B9089580915B
:1003B00074028E3410F010927402909174028CB119
:1003C000E92FF0E0E258FD4F8083E92FEF5FE093E3
:1003D0007402F0E0E358FD4F80818D3011F490936A
:1003E000740212BE80917502882329F481E0809303
:1003F000750285E083BF08951F920F920FB60F928A
:1004000011242F933F934F935F936F937F938F9319
:100410009F93AF93BF93EF93FF930E94D701FF91F8
:10042000EF91BF91AF919F918F917F916F915F916C
:100430004F913F912F910F900FBE0F901F901895E5
:100440005D9BFECF8CB910927402089520E006C027
:100450005D9BFECF2F5FECB910927402FC01E20F9E
:10046000F11DE081EE23A1F708950F931F93CF9321
:10047000DF938C01EB0180E690E00E94260289E682
:1004800090E00E942602C8010E94260289E690E0C0
:100490000E9426025D9BFECF8DE08CB91092740203
:1004A0008CE291E00197F1F7CE010E9426025D9B5C
:1004B000FECF8AE18CB95D9BFECF8DE08CB91092A6
:1004C000740280ED97E00E949801DF91CF911F9117
:1004D0000F91089589B7806189BF88B7806188BF0F
:1004E00082EE94EE9BBD8ABD1FBC1EBC08951F9278
:1004F0000F920FB60F9211240F931F932F933F93D8
:100500004F935F936F937F938F939F93AF93BF931B
:10051000EF93FF938BB78F778BBF88E190E0909339
:10052000DA028093D9020BED12E0C8010E9481012A
:10053000C8016BE670E00E9468018FE592E06CE70D
:1005400070E00E943502C80167E970E00E9468010E
:1005500085E08EBDFF91EF91BF91AF919F918F91FB
:100560007F916F915F914F913F912F911F910F91CB
:100570000F900FBE0F901F901895FC0120E030E007
:1005800090E00DC0992329F4803241F42F5F3F4F52
:1005900004C0803211F090E001C091E0319680817A
:1005A000882381F72F5F3F4FC9010895FC018681A1
:1005B00080931D0321812093D0028281243018F47E
:1005C000223050F404C027502230A8F40EC01092FC
:1005D000CF021092CE020FC0815090E053E0880FFE
:1005E000991F5A95E1F7409602C080E390E09093FE
:1005F000CF028093CE028FEF0895EF92FF920F9378
:10060000DF93CF9300D0CDB7DEB77C01062F8BED03
:1006100092E066EA70E00E9468018091D002823028
:1006200031F0873021F0882311F00FEF1DC0202F0B
:1006300030E03A8329836091CE027091CF02C701E6
:10064000A9010E94610B80911D03801B80931D03F3
:100650008091CE029091CF02E981FA818E0F9F1F87
:100660009093CF028093CE02802F0F900F90CF9166
:10067000DF910F91FF90EF900895FF920F931F93DA
:10068000CF93DF93EC01F62E8BED92E063EB70E0FD
:100690000E9468018091D002833031F0883021F0CF
:1006A000813011F08FEF1DC00F2D10E06091CE0250
:1006B0007091CF02CE01A8010E94790B20911D03F9
:1006C0002F1920931D038091CE029091CF02800FAD
:1006D000911F9093CF028093CE0280E0222309F4F1
:1006E00081E0DF91CF911F910F91FF900895DF93EB
:1006F000CF9300D00F92CDB7DEB781EC90E00E948F
:100700002602809185028983809186028A831B82DA
:10071000CE0101960E94E30A9C0101974F9718F0C1
:1007200080E090E002C0C9010A966AE070E00E9491
:100730009A0ACB010F900F900F90CF91DF910895FF
:10074000AF92BF92CF92DF92FF920F931F93DF93EE
:10075000CF9300D00F92CDB7DEB788E10FB6F894F3
:1007600081BD11BC0FBE80EC92E10E94B50178946E
:1007700080E095E55D9BFECF9CB98F5F8034D1F71B
:100780005D9BFECF8DE08CB91092740288E893E1F6
:100790002CE231E0F9013197F1F70197D9F789ECB3
:1007A00090E00E94260284EC99E02CE231E0F9010D
:1007B0003197F1F70197D9F78DEC90E00E9426026E
:1007C00084EC99E02CE231E0F9013197F1F70197DF
:1007D000D9F783ED90E00E94260284EC99E02CE2A8
:1007E00031E0F9013197F1F70197D9F78EED90E0FB
:1007F0000E94260284EC99E02CE231E0F901319765
:10080000F1F70197D9F7109274022FE088E190E098
:100810000FB6F894A89581BD0FBE21BD6CE2A62E3F
:1008200061E0B62E6E010894C11CD11C81EC90E0F1
:100830000E94260284EC99E0F5013197F1F70197C7
:10084000D9F7809185028983809186028A831B82F1
:10085000C6010E94E30A9C0101974F9718F080E0BF
:1008600090E002C0C9010A966AE070E00E949A0A0C
:10087000F72E062F172F1092740201151105B1F2F1
:1008800084EF91E00E9498010E94AA01802F9F2D81
:100890000F900F900F90CF91DF911F910F91FF90CC
:1008A000DF90CF90BF90AF900895CF93DF938BED03
:1008B00092E061EF70E00E94680180E29EE42CE229
:1008C00031E0F9013197F1F70197D9F70E946A02F7
:1008D0000E94A0038FE592E060E070E04EE050E0FF
:1008E0000E94610B10926C02C0E1D0E0CE018351F6
:1008F0009D4FBE0148E050E00E94610B2896C03336
:10090000D105A1F780E390E00E94710B80937902FA
:100910009FEF94BB8F7085BB85B7837F85BF8BB7F7
:1009200080688BBF80ED97E00E9498010E9477035A
:10093000EC018BED92E00E9481018BED92E061E190
:1009400071E00E9468018BED92E061E271E00E942B
:100950006801C230D10551F0C330D10561F0219753
:10096000A9F48BED92E06BE271E009C08BED92E0AF
:1009700060E371E004C08BED92E067E371E00E94F8
:10098000680180916D0290916E02CECF8BED92E066
:100990006EE371E00E9468018BED92E06EE772E019
:1009A0000E94680188EE93E0BFCF1F93CF93DF933F
:1009B0000E9455040E943408BB9A10E028EB3BE0EB
:1009C00003C0C9010197F1F71150D9F7BB9878948A
:1009D000CCE2D1E00E943B08112351F48BED92E070
:1009E0000E9481018BED92E066E471E00E94680153
:1009F00084EF91E0FE013197F1F70197D9F711509B
:100A0000E9CF382F662359F025B381E090E002C08A
:100A1000880F991F3A95E2F7282B25BB0BC025B309
:100A200081E090E002C0880F991F3A95E2F7809527
:100A3000822385BB65B3609379026F7080E390E099
:100A40000E94830B08958F929F92AF92BF92CF9294
:100A5000DF92EF92FF920F931F93DF93CF93CDB767
:100A6000DEB728970FB6F894DEBF0FBECDBF8091DA
:100A70006D0290916E02A0916F02B0917002805F42
:100A8000984DAF4FBF4F80936D0290936E02A0932D
:100A90006F02B09370028EE792E069E670E00E9408
:100AA000010B80E090E069E670E00E94010BBC0160
:100AB0008FE592E04DE050E00E941A0B009709F09C
:100AC00010C280E090E063E571E00E94010B80E0DD
:100AD00090E063E571E00E94010B0E944F0B5C0106
:100AE0000E94BD028C014C016E010894C11CD11CF6
:100AF000EE24FF2421C0E114F10441F4C50165E5B1
:100B000071E00E94010B9A83898309C080E090E024
:100B100065E571E00E94010BD6018D939C93D6018F
:100B2000ED91FC918081803231F30894E11CF11C3D
:100B3000E2E0F0E0CE0EDF1EE016F106E0F21092E9
:100B40007E020230110589F10330110528F40130CD
:100B5000110509F09DC109C00330110509F468C0F1
:100B60000430110509F094C1D3C089819A8167E5E9
:100B700071E00E94110B009741F0C50167E571E03B
:100B80000E94110B009709F098C18BED92E06DE582
:100B900071E00E94680180E395E72CE231E0F90101
:100BA0003197F1F70197D9F788C189819A816BE66E
:100BB00071E00E94110B009709F07FC18B819C812D
:100BC00060E771E00E94110B009709F076C18BED90
:100BD00092E067E771E00E9468017DEFE72E72E026
:100BE000F72E00E010E08EE792E0B7010E94060BBE
:100BF0008091790290E0002E02C0959587950A9425
:100C0000E2F780FF05C08EE792E068E871E004C07B
:100C10008EE792E06DE871E00E94060B0F5F1F4FB8
:100C200028E030E0E20EF31E04301105E1F632C197
:100C300089819A8163E971E00E94110B009709F0A4
:100C40003CC10D811E81C80167E971E00E94110B52
:100C5000009751F58BED92E06AE971E00E9468011E
:100C6000CB80DC800DEF12E0EE24FF24C601B8013A
:100C70000E94110B009771F48E2D61E00E94010516
:100C80008EE792E0B8010E94060B8EE792E069EAD7
:100C900071E031C00894E11CF11C085F1F4F34E083
:100CA000E316F10419F709C1C80164EB71E00E9471
:100CB000110B009709F001C18BED92E068EB71E038
:100CC0000E946801CB80DC800DEF12E0EE24FF244F
:100CD000C601B8010E94110B009781F48E2D60E0CF
:100CE0000E9401058EE792E0B8010E94060B8EE794
:100CF00092E068EC71E00E94060BCCC00894E11C05
:100D0000F11C085F1F4F84E0E816F10409F7D5C015
:100D100089819A8163E971E00E94110B009709F0C3
:100D2000B5C00D811E81C80167E971E00E94110BF9
:100D3000009709F04AC08BED92E064ED71E00E94EB
:100D400068010B811C816DEFC62E62E0D62EEE2469
:100D5000FF24C801B6010E94110B009751F58E2D9A
:100D600060E00E940105F701E658FD4F81E08083B5
:100D70000F811885C8010E94E30AEE0CFF1CA1ED4B
:100D8000B2E0EA0EFB1E9C01220F331F280F391F11
:100D9000220F331F220F331FF701318320838EE789
:100DA00092E0B6010E94060B8EE792E069EE71E0D8
:100DB00051C00894E11CF11C28E030E0C20ED31EA3
:100DC00034E0E316F10429F661C0C80164EB71E078
:100DD0000E94110B009709F059C08BED92E062E080
:100DE00072E00E9468010B811C81ADEFCA2EA2E067
:100DF000DA2EEE24FF24C801B6010E94110B0097E1
:100E0000C9F58E2D61E00E940105F701E658FD4FFE
:100E100082E080830F811885C8010E94E30AEE0CEE
:100E2000FF1CA1EDB2E0EA0EFB1E9C01220F331F56
:100E3000280F391F220F331F220F331FF701318371
:100E400020838EE792E0B6010E94060B8EE792E0C7
:100E500068E172E00E94060B8EE792E0B8010E9402
:100E6000060B8EE792E06CEF71E00E94060B88247F
:100E700099240CC00894E11CF11C28E030E0C20E5B
:100E8000D31E34E0E316F10409F0B5CF85E08EBD42
:100E9000892899F48AEF90E00E9498018BED92E006
:100EA0000E9481018BED92E06EE772E00E94680182
:100EB0008FE592E06EE772E012C08AEF90E00E9448
:100EC00098018BED92E00E9481018BED92E06CE243
:100ED00072E00E9468018FE592E063E472E00E9494
:100EE000350228960FB6F894DEBF0FBECDBFCF9166
:100EF000DF911F910F91FF90EF90DF90CF90BF9007
:100F0000AF909F908F9008950E94AA0180917402E3
:100F1000E82FF0E0E258FD4F10828F5F809374025B
:100F20008AEF90E00E9498018EE792E069E572E016
:100F300045E050E00E941A0B009711F40E9423052F
:100F40008AEF90E00E9498011092740208951F9217
:100F50000F920FB60F9211242F933F934F935F93ED
:100F60006F937F938F939F93AF93BF93EF93FF9371
:100F70000E948407FF91EF91BF91AF919F918F9154
:100F80007F916F915F914F913F912F910F900FBE85
:100F90000F901F901895FF920F931F93CF93DF939D
:100FA0001DBC1CBC01ED12E0FF24C0E0D0E0F80144
:100FB00080819181009729F0019791838083F39438
:100FC00010C0FE01E658FD4FE081E13019F0E2303B
:100FD00041F403C08C2F61E002C08C2F60E00E94BE
:100FE000010521960E5F1F4FC430D10501F7809196
:100FF000D9029091DA02009739F0F3940197909317
:10100000DA028093D90203C08BB780688BBFFF20C0
:1010100009F41EBCDF91CF911F910F91FF900895AD
:101020001F920F920FB60F9211242F933F934F935D
:101030005F936F937F938F939F93AF93BF93EF9340
:10104000FF930E94CB07FF91EF91BF91AF919F91CA
:101050008F917F916F915F914F913F912F910F9061
:101060000FBE0F901F90189585B7826085BF8BB714
:1010700080648BBF08951F93CF93DF9360912E03FD
:10108000635067FDA5C080912B03CCE0D0E0C81B66
:10109000D109CE5CDC4F80912A038D3209F085C0E6
:1010A000683009F093C083EC80931E038AE5809337
:1010B0007102109276028881807641F0CE010E9402
:1010C000D602282F8F3F09F45FC065C09A81109225
:1010D00027038981882321F41092280322E04DC040
:1010E000853019F490932F0347C08630B1F58B817A
:1010F000813019F484EA90E004C0823041F486EB38
:1011000090E090932D0380932C0322E122C0833042
:10111000F9F48A81882341F484E590E090932D03CB
:1011200080932C0324E015C0813041F488E590E0E1
:1011300090932D0380932C0324E30BC0823041F461
:101140008CE890E090932D0380932C0328E101C05C
:1011500020E080E4809376021EC0883021F421E0F4
:1011600081E393E00CC0893019F49093310304C0FB
:101170008A3011F421E001C020E087E293E09093EF
:101180002D0380932C0307C0888187FD2E8180E882
:101190008093760206C08F81882319F48E8182178E
:1011A00008F0822F8093720211C08091760287FF2F
:1011B0000DC0CE010E943D038F3F21F48EE180934C
:1011C000710204C0882311F01092720210922E0353
:1011D0008091710284FF5AC0809172028F3F09F49E
:1011E00055C0182F893008F018E0811B80937202D7
:1011F00080911E0398E8892780931E03112399F19B
:101200008091760287FF09C08FE193E0612F0E94F1
:10121000FD02182F8930A0F526C020912C033091B3
:101220002D0386FF0DC0AFE1B3E080E090E0F9014F
:10123000E80FF91FE491ED9301961817C1F708C064
:10124000912FD901EFE1F3E08D9181939150E1F776
:101250001150812F90E01F5F0196820F931F909392
:101260002D0380932C038FE193E0612F0E94690985
:10127000612F6C5F6C3041F08FEF8093720204C07D
:101280008FEF809372026EE16093710294E186B3F6
:10129000887131F49150D9F710922F0310922903DD
:1012A000DF91CF911F910895A82FB92F80E090E092
:1012B00041E050EA609530E009C02D918227979572
:1012C000879510F084279527305EC8F36F5FA8F3E9
:1012D0000895EADF8D939D930895CF93CFB7CF9371
:1012E000C395B39BE9F7B39B09C0B39B07C0B39BFE
:1012F00005C0B39B03C0B39B01C0A1C0DF93C091E5
:101300002B03DD27CE5CDC4FB39B02C0DF91EBCF1C
:101310002F930F931F9306B32FEF03FB20F94F93E7
:101320003F9316B34FEF012703FB21F93BE031C098
:101330004E7F012F16B3216028C0102F4D7F2260F1
:10134000000006B329C04B7F2460012F000016B3B4
:101350002BC016B3477F28602AC04F7E06B320619A
:101360002CC04F7D16B320622FC04F7B06B3206484
:1013700032C0422706B349934FEF0000102713FBFA
:1013800020F916B31871C9F1297F91F2012703FBE7
:1013900021F906B3237F89F2315058F1102713FB4E
:1013A00022F916B3277E79F2012703FB23F92F7C5C
:1013B00081F206B3102713FB24F92F7971F200C0D4
:1013C00016B3012703FB25F92F7359F200C006B3AA
:1013D000102713FB26F9223040F200C016B3012774
:1013E00003FB27F9243028F64F77206816B3000056
:1013F000F9CF10E41ABF002717C03B503195C31B2B
:10140000D04010E41ABF0881033CE9F00B34D9F056
:10141000209129031981110F1213EDCF093641F1E3
:101420000D3211F0013E39F7009330033F914F9197
:101430001F910F912F91DF91CAB7C6FD51CFCF9168
:10144000CFBFCF91189520913003222379F31091CB
:101450002E03112311F5343012F130932E03209313
:101460002A0310912B033BE0311B30932B0317C051
:1014700000912E0301308CF40AE53091710234FDA5
:1014800010C000937102CEE1D3E00FC02795A8F4FD
:101490005150A9F4220F0000F9CF4AE503C042EDF4
:1014A00001C0432FC4E1D0E032E017B31861C39A02
:1014B00017BB08B320E418E15F93012756E008BB8F
:1014C000279520F4515021F4220FF9CF012756E03F
:1014D00000003B5A08BBD0F2279528F4515029F45C
:1014E000220F0000F9CF012756E0279508BB20F412
:1014F000515021F4220FF9CF012756E029913323CF
:1015000008BB21F6077E10912F03110FC651D04062
:1015100008BB11F01093290310E41ABF086017B339
:10152000177E402F477E5F9100C000C008BB17BBED
:1015300048BB7CCF97FB092E07260AD077FD04D045
:101540002ED006D000201AF4709561957F4F089533
:10155000F6F7909581959F4F0895A1E21A2EAA1B48
:10156000BB1BFD010DC0AA1FBB1FEE1FFF1FA21753
:10157000B307E407F50720F0A21BB30BE40BF50B50
:10158000661F771F881F991F1A9469F760957095D9
:10159000809590959B01AC01BD01CF010895AA1BD8
:1015A000BB1B51E107C0AA1FBB1FA617B70710F04E
:1015B000A61BB70B881F991F5A95A9F78095909580
:1015C000BC01CD010895FC0188279927E894219159
:1015D0002032E9F3293010F02E30C8F32B3241F0DD
:1015E0002D3239F4689404C00E94590B820F911D6A
:1015F000219120532A30C0F31EF4909581959F4F7E
:10160000089547E752E00E94280B0895FB01DC0192
:101610000D900020E9F7119701900D920020E1F75D
:101620000895FB01DC018D91019080190110D9F31F
:10163000990B0895FB01DC014150504030F08D9131
:101640000190801919F40020B9F7881B990B0895AF
:10165000FA01A191B081009719F41097E1F0CD0142
:10166000DC01CD010D90002011F4C00113C0FB017D
:101670002191222319F02015D9F7F3CFFB012191F5
:10168000201519F41E92119606C02223C1F70D9061
:101690000020A1F7D001FA01A193B0830895DC01E5
:1016A0006C9161566A3108F0605E6F5B6D93C1F7B3
:1016B00008957AE0979F902D879F802D910D11249A
:1016C0000895DC01CB01FC01E199FECF06C0FFBB10
:1016D000EEBBE09A31960DB20D9241505040B8F7F2
:1016E0000895E199FECF9FBB8EBBE09A99278DB3F9
:1016F0000895DC01CB0103C02D910E94840B415061
:101700005040D0F70895262FE199FECF9FBB8EBBA6
:101710002DBB0FB6F894E29AE19A0FBE0196089598
:04172000F894FFCF6B
:1017240061742B636D67733D002200414C45525434
:101734002120494E54525553494F4E00414C455275
:10174400542120494E54525553494F4E2044455438
:1017540045435445442100414C45525420534D5374
:101764002053454E54000A75736220726561642EDD
:101774002E2E000A7573622077726974652E2E2EE0
:101784000061742B6373710D0061740D00617465E5
:10179400300D0061742B636D67663D310D0061741B
:1017A4002B636E6D693D312C322C302C302C300D76
:1017B4000047534D20436F6E74726F6C20312E308E
:1017C4000A696E697469616C6973696E672E2E2E7D
:1017D400002053797374656D20204F6E6C696E65BB
:1017E400000A7369676E616C3A20005745414B00EB
:1017F4004D454449554D005354524F4E4700554EA4
:101804004B4E4F574E005553422072656164792EFA
:101814002E2E000A0020005245534554000A444528
:10182400564943452052455345540053484F5700A9
:10183400535441545553000A73686F77207374618D
:1018440074757320636D64003A4F4E0D003A4F4631
:10185400460D00534554004F4E000A646576696393
:1018640065206F6E20636D6400205455524E4544CC
:10187400204F4E004F4646000A6465766963652032
:101884006F666620636D6400205455524E454420B3
:101894004F4646000A646576696365206F6E20745E
:1018A400696D657220636D6400204F4E2054494D6C
:1018B40045522053455420464F522000206D696EF6
:1018C40073000A646576696365206F6666207469CF
:1018D4006D657220636D6400204F46462054494D67
:1018E40045522053455420464F5220006572726F72
:1018F400722070617273696E67200A636F6D6D6127
:101904006E64006572726F722070617273696E67C3
:1019140020636F6D6D616E64000A2B434D540000AB
:1019240000000000000000000000000000204E0045
:04193400005AFF0056
:00000001FF
